{
  "_format": "hh-sol-artifact-1",
  "contractName": "RewardDistribution",
  "sourceName": "contracts/RewardDistribution.sol",
  "abi": [
    {
      "inputs": [
        {
          "internalType": "address",
          "name": "_signerAddress",
          "type": "address"
        },
        {
          "internalType": "address",
          "name": "_tokenAddress",
          "type": "address"
        }
      ],
      "stateMutability": "nonpayable",
      "type": "constructor"
    },
    {
      "anonymous": false,
      "inputs": [
        {
          "indexed": true,
          "internalType": "address",
          "name": "previousOwner",
          "type": "address"
        },
        {
          "indexed": true,
          "internalType": "address",
          "name": "newOwner",
          "type": "address"
        }
      ],
      "name": "OwnershipTransferred",
      "type": "event"
    },
    {
      "anonymous": false,
      "inputs": [
        {
          "indexed": true,
          "internalType": "address",
          "name": "userAdd",
          "type": "address"
        },
        {
          "indexed": false,
          "internalType": "uint256",
          "name": "amount",
          "type": "uint256"
        },
        {
          "indexed": false,
          "internalType": "uint256",
          "name": "withdrawalId",
          "type": "uint256"
        }
      ],
      "name": "RewardWithdrawal",
      "type": "event"
    },
    {
      "inputs": [
        {
          "internalType": "address",
          "name": "userAddress",
          "type": "address"
        },
        {
          "internalType": "uint256",
          "name": "amount",
          "type": "uint256"
        }
      ],
      "name": "adminWithdrawal",
      "outputs": [],
      "stateMutability": "nonpayable",
      "type": "function"
    },
    {
      "inputs": [],
      "name": "owner",
      "outputs": [
        {
          "internalType": "address",
          "name": "",
          "type": "address"
        }
      ],
      "stateMutability": "view",
      "type": "function"
    },
    {
      "inputs": [],
      "name": "signerAddress",
      "outputs": [
        {
          "internalType": "address",
          "name": "",
          "type": "address"
        }
      ],
      "stateMutability": "view",
      "type": "function"
    },
    {
      "inputs": [
        {
          "internalType": "address",
          "name": "newOwner",
          "type": "address"
        }
      ],
      "name": "transferOwnership",
      "outputs": [],
      "stateMutability": "nonpayable",
      "type": "function"
    },
    {
      "inputs": [
        {
          "internalType": "address",
          "name": "_signerAddress",
          "type": "address"
        }
      ],
      "name": "updateSignerAddress",
      "outputs": [],
      "stateMutability": "nonpayable",
      "type": "function"
    },
    {
      "inputs": [
        {
          "internalType": "bytes",
          "name": "",
          "type": "bytes"
        }
      ],
      "name": "usedSignatures",
      "outputs": [
        {
          "internalType": "bool",
          "name": "",
          "type": "bool"
        }
      ],
      "stateMutability": "view",
      "type": "function"
    },
    {
      "inputs": [
        {
          "internalType": "address",
          "name": "userAddress",
          "type": "address"
        },
        {
          "internalType": "uint256",
          "name": "amount",
          "type": "uint256"
        },
        {
          "internalType": "uint256",
          "name": "withdrawalId",
          "type": "uint256"
        },
        {
          "internalType": "bytes",
          "name": "signature",
          "type": "bytes"
        }
      ],
      "name": "withdrawReward",
      "outputs": [
        {
          "internalType": "bool",
          "name": "",
          "type": "bool"
        }
      ],
      "stateMutability": "nonpayable",
      "type": "function"
    }
  ],
  "bytecode": "0x60806040523480156200001157600080fd5b50604051620018ea380380620018ea833981810160405281019062000037919062000276565b6000620000496200025760201b60201c565b9050806000806101000a81548173ffffffffffffffffffffffffffffffffffffffff021916908373ffffffffffffffffffffffffffffffffffffffff1602179055508073ffffffffffffffffffffffffffffffffffffffff16600073ffffffffffffffffffffffffffffffffffffffff167f8be0079c531659141344cd1fd0a4f28419497f9722a3daafe3b4186f6b6457e060405160405180910390a350600073ffffffffffffffffffffffffffffffffffffffff168273ffffffffffffffffffffffffffffffffffffffff1614156200015a576040517f08c379a0000000000000000000000000000000000000000000000000000000008152600401620001519062000327565b60405180910390fd5b600073ffffffffffffffffffffffffffffffffffffffff168173ffffffffffffffffffffffffffffffffffffffff161415620001cd576040517f08c379a0000000000000000000000000000000000000000000000000000000008152600401620001c49062000305565b60405180910390fd5b81600160006101000a81548173ffffffffffffffffffffffffffffffffffffffff021916908373ffffffffffffffffffffffffffffffffffffffff16021790555080600260006101000a81548173ffffffffffffffffffffffffffffffffffffffff021916908373ffffffffffffffffffffffffffffffffffffffff160217905550505062000420565b600033905090565b600081519050620002708162000406565b92915050565b600080604083850312156200028a57600080fd5b60006200029a858286016200025f565b9250506020620002ad858286016200025f565b9150509250929050565b6000620002c660208362000349565b9150620002d3826200038e565b602082019050919050565b6000620002ed60218362000349565b9150620002fa82620003b7565b604082019050919050565b600060208201905081810360008301526200032081620002b7565b9050919050565b600060208201905081810360008301526200034281620002de565b9050919050565b600082825260208201905092915050565b600062000367826200036e565b9050919050565b600073ffffffffffffffffffffffffffffffffffffffff82169050919050565b7f546f6b656e204164647265737320636f756c64206e6f7420626520656d707479600082015250565b7f5369676e6572204164647265737320636f756c64206e6f7420626520656d707460008201527f7900000000000000000000000000000000000000000000000000000000000000602082015250565b62000411816200035a565b81146200041d57600080fd5b50565b6114ba80620004306000396000f3fe608060405234801561001057600080fd5b506004361061007d5760003560e01c80638fa2a9f01161005b5780638fa2a9f0146100da578063a78e0355146100f6578063e949580e14610126578063f2fde38b146101565761007d565b806337307c3d146100825780635b7633d01461009e5780638da5cb5b146100bc575b600080fd5b61009c60048036038101906100979190610bab565b610172565b005b6100a6610355565b6040516100b39190610f1f565b60405180910390f35b6100c461037b565b6040516100d19190610f1f565b60405180910390f35b6100f460048036038101906100ef9190610b82565b6103a4565b005b610110600480360381019061010b9190610be7565b6104d4565b60405161011d9190610f63565b60405180910390f35b610140600480360381019061013b9190610c8b565b610800565b60405161014d9190610f63565b60405180910390f35b610170600480360381019061016b9190610b82565b610836565b005b61017a6109df565b73ffffffffffffffffffffffffffffffffffffffff1661019861037b565b73ffffffffffffffffffffffffffffffffffffffff16146101ee576040517f08c379a00000000000000000000000000000000000000000000000000000000081526004016101e590611043565b60405180910390fd5b600073ffffffffffffffffffffffffffffffffffffffff168273ffffffffffffffffffffffffffffffffffffffff16141561025e576040517f08c379a000000000000000000000000000000000000000000000000000000000815260040161025590610fc3565b60405180910390fd5b600081116102a1576040517f08c379a000000000000000000000000000000000000000000000000000000000815260040161029890611023565b60405180910390fd5b600260009054906101000a900473ffffffffffffffffffffffffffffffffffffffff1673ffffffffffffffffffffffffffffffffffffffff1663a9059cbb83836040518363ffffffff1660e01b81526004016102fe929190610f3a565b602060405180830381600087803b15801561031857600080fd5b505af115801561032c573d6000803e3d6000fd5b505050506040513d601f19601f820116820180604052508101906103509190610c62565b505050565b600160009054906101000a900473ffffffffffffffffffffffffffffffffffffffff1681565b60008060009054906101000a900473ffffffffffffffffffffffffffffffffffffffff16905090565b6103ac6109df565b73ffffffffffffffffffffffffffffffffffffffff166103ca61037b565b73ffffffffffffffffffffffffffffffffffffffff1614610420576040517f08c379a000000000000000000000000000000000000000000000000000000000815260040161041790611043565b60405180910390fd5b600073ffffffffffffffffffffffffffffffffffffffff168173ffffffffffffffffffffffffffffffffffffffff161415610490576040517f08c379a000000000000000000000000000000000000000000000000000000000815260040161048790611063565b60405180910390fd5b80600160006101000a81548173ffffffffffffffffffffffffffffffffffffffff021916908373ffffffffffffffffffffffffffffffffffffffff16021790555050565b60008073ffffffffffffffffffffffffffffffffffffffff168573ffffffffffffffffffffffffffffffffffffffff161415610545576040517f08c379a000000000000000000000000000000000000000000000000000000000815260040161053c90610fc3565b60405180910390fd5b60008411610588576040517f08c379a000000000000000000000000000000000000000000000000000000000815260040161057f90611023565b60405180910390fd5b6003826040516105989190610ee2565b908152602001604051809103902060009054906101000a900460ff16156105f4576040517f08c379a00000000000000000000000000000000000000000000000000000000081526004016105eb90611083565b60405180910390fd5b600061062a86868660405160200161060e93929190610ea5565b60405160208183030381529060405280519060200120846109e7565b9050600160009054906101000a900473ffffffffffffffffffffffffffffffffffffffff1673ffffffffffffffffffffffffffffffffffffffff168173ffffffffffffffffffffffffffffffffffffffff16146106bc576040517f08c379a00000000000000000000000000000000000000000000000000000000081526004016106b390611003565b60405180910390fd5b600260009054906101000a900473ffffffffffffffffffffffffffffffffffffffff1673ffffffffffffffffffffffffffffffffffffffff1663a9059cbb87876040518363ffffffff1660e01b8152600401610719929190610f3a565b602060405180830381600087803b15801561073357600080fd5b505af1158015610747573d6000803e3d6000fd5b505050506040513d601f19601f8201168201806040525081019061076b9190610c62565b50600160038460405161077e9190610ee2565b908152602001604051809103902060006101000a81548160ff0219169083151502179055508573ffffffffffffffffffffffffffffffffffffffff167f33c8b13439ce4d29880c8bc5aada8194ded575a893a529ed5941f8e41342a33386866040516107eb9291906110a3565b60405180910390a26001915050949350505050565b6003818051602081018201805184825260208301602085012081835280955050505050506000915054906101000a900460ff1681565b61083e6109df565b73ffffffffffffffffffffffffffffffffffffffff1661085c61037b565b73ffffffffffffffffffffffffffffffffffffffff16146108b2576040517f08c379a00000000000000000000000000000000000000000000000000000000081526004016108a990611043565b60405180910390fd5b600073ffffffffffffffffffffffffffffffffffffffff168173ffffffffffffffffffffffffffffffffffffffff161415610922576040517f08c379a000000000000000000000000000000000000000000000000000000000815260040161091990610fe3565b60405180910390fd5b8073ffffffffffffffffffffffffffffffffffffffff1660008054906101000a900473ffffffffffffffffffffffffffffffffffffffff1673ffffffffffffffffffffffffffffffffffffffff167f8be0079c531659141344cd1fd0a4f28419497f9722a3daafe3b4186f6b6457e060405160405180910390a3806000806101000a81548173ffffffffffffffffffffffffffffffffffffffff021916908373ffffffffffffffffffffffffffffffffffffffff16021790555050565b600033905090565b60006109f283610a68565b92506000806000610a0285610a98565b80935081945082955050505060018684848460405160008152602001604052604051610a319493929190610f7e565b6020604051602081039080840390855afa158015610a53573d6000803e3d6000fd5b50505060206040510351935050505092915050565b600081604051602001610a7b9190610ef9565b604051602081830303815290604052805190602001209050919050565b60008060006041845114610aab57600080fd5b60008060006020870151925060408701519150606087015160001a90508083839550955095505050509193909250565b6000610aee610ae9846110f1565b6110cc565b905082815260208101848484011115610b0657600080fd5b610b118482856111b3565b509392505050565b600081359050610b288161143f565b92915050565b600081519050610b3d81611456565b92915050565b600082601f830112610b5457600080fd5b8135610b64848260208601610adb565b91505092915050565b600081359050610b7c8161146d565b92915050565b600060208284031215610b9457600080fd5b6000610ba284828501610b19565b91505092915050565b60008060408385031215610bbe57600080fd5b6000610bcc85828601610b19565b9250506020610bdd85828601610b6d565b9150509250929050565b60008060008060808587031215610bfd57600080fd5b6000610c0b87828801610b19565b9450506020610c1c87828801610b6d565b9350506040610c2d87828801610b6d565b925050606085013567ffffffffffffffff811115610c4a57600080fd5b610c5687828801610b43565b91505092959194509250565b600060208284031215610c7457600080fd5b6000610c8284828501610b2e565b91505092915050565b600060208284031215610c9d57600080fd5b600082013567ffffffffffffffff811115610cb757600080fd5b610cc384828501610b43565b91505092915050565b610cd581611154565b82525050565b610cec610ce782611154565b611226565b82525050565b610cfb81611166565b82525050565b610d0a81611172565b82525050565b610d21610d1c82611172565b611238565b82525050565b6000610d3282611122565b610d3c818561112d565b9350610d4c8185602086016111c2565b80840191505092915050565b6000610d65601c83611149565b9150610d70826112ab565b601c82019050919050565b6000610d88601f83611138565b9150610d93826112d4565b602082019050919050565b6000610dab602683611138565b9150610db6826112fd565b604082019050919050565b6000610dce600e83611138565b9150610dd98261134c565b602082019050919050565b6000610df1601583611138565b9150610dfc82611375565b602082019050919050565b6000610e14602083611138565b9150610e1f8261139e565b602082019050919050565b6000610e37602183611138565b9150610e42826113c7565b604082019050919050565b6000610e5a601783611138565b9150610e6582611416565b602082019050919050565b610e798161119c565b82525050565b610e90610e8b8261119c565b611254565b82525050565b610e9f816111a6565b82525050565b6000610eb18286610cdb565b601482019150610ec18285610e7f565b602082019150610ed18284610e7f565b602082019150819050949350505050565b6000610eee8284610d27565b915081905092915050565b6000610f0482610d58565b9150610f108284610d10565b60208201915081905092915050565b6000602082019050610f346000830184610ccc565b92915050565b6000604082019050610f4f6000830185610ccc565b610f5c6020830184610e70565b9392505050565b6000602082019050610f786000830184610cf2565b92915050565b6000608082019050610f936000830187610d01565b610fa06020830186610e96565b610fad6040830185610d01565b610fba6060830184610d01565b95945050505050565b60006020820190508181036000830152610fdc81610d7b565b9050919050565b60006020820190508181036000830152610ffc81610d9e565b9050919050565b6000602082019050818103600083015261101c81610dc1565b9050919050565b6000602082019050818103600083015261103c81610de4565b9050919050565b6000602082019050818103600083015261105c81610e07565b9050919050565b6000602082019050818103600083015261107c81610e2a565b9050919050565b6000602082019050818103600083015261109c81610e4d565b9050919050565b60006040820190506110b86000830185610e70565b6110c56020830184610e70565b9392505050565b60006110d66110e7565b90506110e282826111f5565b919050565b6000604051905090565b600067ffffffffffffffff82111561110c5761110b61125e565b5b6111158261128d565b9050602081019050919050565b600081519050919050565b600081905092915050565b600082825260208201905092915050565b600081905092915050565b600061115f8261117c565b9050919050565b60008115159050919050565b6000819050919050565b600073ffffffffffffffffffffffffffffffffffffffff82169050919050565b6000819050919050565b600060ff82169050919050565b82818337600083830152505050565b60005b838110156111e05780820151818401526020810190506111c5565b838111156111ef576000848401525b50505050565b6111fe8261128d565b810181811067ffffffffffffffff8211171561121d5761121c61125e565b5b80604052505050565b600061123182611242565b9050919050565b6000819050919050565b600061124d8261129e565b9050919050565b6000819050919050565b7f4e487b7100000000000000000000000000000000000000000000000000000000600052604160045260246000fd5b6000601f19601f8301169050919050565b60008160601b9050919050565b7f19457468657265756d205369676e6564204d6573736167653a0a333200000000600082015250565b7f55736572204164647265737320636f756c64206e6f7420626520656d70747900600082015250565b7f4f776e61626c653a206e6577206f776e657220697320746865207a65726f206160008201527f6464726573730000000000000000000000000000000000000000000000000000602082015250565b7f7369676e20696e636f7272656374000000000000000000000000000000000000600082015250565b7f416d6f756e742063616e6e6f74206265207a65726f0000000000000000000000600082015250565b7f4f776e61626c653a2063616c6c6572206973206e6f7420746865206f776e6572600082015250565b7f5369676e6572204164647265737320636f756c64206e6f7420626520656d707460008201527f7900000000000000000000000000000000000000000000000000000000000000602082015250565b7f5369676e61747572657320616c72656164792075736564000000000000000000600082015250565b61144881611154565b811461145357600080fd5b50565b61145f81611166565b811461146a57600080fd5b50565b6114768161119c565b811461148157600080fd5b5056fea26469706673582212209bc1ebec55b8d0d03505b106c9e108e5ec2bd61672ef8f2f9a960c6a657ea76464736f6c63430008040033",
  "linkReferences": {},
  "deployedLinkReferences": {}
}