{
  "_format": "hh-sol-artifact-1",
  "contractName": "ICOTokenCrowdsale",
  "sourceName": "contracts/ICOCrowdsale.sol",
  "abi": [
    {
      "inputs": [
        {
          "internalType": "uint256",
          "name": "rate_",
          "type": "uint256"
        },
        {
          "internalType": "uint256",
          "name": "usdRate_",
          "type": "uint256"
        },
        {
          "internalType": "address",
          "name": "token_",
          "type": "address"
        },
        {
          "internalType": "uint256",
          "name": "icocap_",
          "type": "uint256"
        },
        {
          "internalType": "address",
          "name": "usdc",
          "type": "address"
        },
        {
          "internalType": "address",
          "name": "usdt",
          "type": "address"
        },
        {
          "internalType": "address",
          "name": "adminWallet",
          "type": "address"
        },
        {
          "internalType": "uint256",
          "name": "lockPeriod_",
          "type": "uint256"
        },
        {
          "internalType": "uint256",
          "name": "tokenLimit",
          "type": "uint256"
        }
      ],
      "stateMutability": "nonpayable",
      "type": "constructor"
    },
    {
      "anonymous": false,
      "inputs": [
        {
          "indexed": true,
          "internalType": "address",
          "name": "previousOwner",
          "type": "address"
        },
        {
          "indexed": true,
          "internalType": "address",
          "name": "newOwner",
          "type": "address"
        }
      ],
      "name": "OwnershipTransferred",
      "type": "event"
    },
    {
      "anonymous": false,
      "inputs": [
        {
          "indexed": true,
          "internalType": "address",
          "name": "purchaser",
          "type": "address"
        },
        {
          "indexed": true,
          "internalType": "address",
          "name": "beneficiary",
          "type": "address"
        },
        {
          "indexed": false,
          "internalType": "uint256",
          "name": "value",
          "type": "uint256"
        },
        {
          "indexed": false,
          "internalType": "uint256",
          "name": "amount",
          "type": "uint256"
        }
      ],
      "name": "TokensPurchased",
      "type": "event"
    },
    {
      "anonymous": false,
      "inputs": [
        {
          "indexed": false,
          "internalType": "address",
          "name": "receiver",
          "type": "address"
        },
        {
          "indexed": false,
          "internalType": "uint256",
          "name": "amount",
          "type": "uint256"
        },
        {
          "indexed": false,
          "internalType": "bytes",
          "name": "info",
          "type": "bytes"
        }
      ],
      "name": "paymentProccessed",
      "type": "event"
    },
    {
      "inputs": [
        {
          "internalType": "uint256",
          "name": "_amount",
          "type": "uint256"
        }
      ],
      "name": "adminFloyxWithdrawal",
      "outputs": [],
      "stateMutability": "nonpayable",
      "type": "function"
    },
    {
      "inputs": [
        {
          "internalType": "uint256",
          "name": "amount_",
          "type": "uint256"
        }
      ],
      "name": "adminMaticWithdrawal",
      "outputs": [],
      "stateMutability": "nonpayable",
      "type": "function"
    },
    {
      "inputs": [
        {
          "internalType": "uint256",
          "name": "_amount",
          "type": "uint256"
        }
      ],
      "name": "adminUsdcWithdrawal",
      "outputs": [],
      "stateMutability": "nonpayable",
      "type": "function"
    },
    {
      "inputs": [
        {
          "internalType": "uint256",
          "name": "_amount",
          "type": "uint256"
        }
      ],
      "name": "adminUsdtWithdrawal",
      "outputs": [],
      "stateMutability": "nonpayable",
      "type": "function"
    },
    {
      "inputs": [
        {
          "internalType": "address",
          "name": "beneficiary",
          "type": "address"
        }
      ],
      "name": "buyTokens",
      "outputs": [],
      "stateMutability": "payable",
      "type": "function"
    },
    {
      "inputs": [
        {
          "internalType": "address",
          "name": "beneficiary",
          "type": "address"
        },
        {
          "internalType": "uint256",
          "name": "usdAmount_",
          "type": "uint256"
        },
        {
          "internalType": "bool",
          "name": "usdc",
          "type": "bool"
        },
        {
          "internalType": "bool",
          "name": "usdt",
          "type": "bool"
        }
      ],
      "name": "buyTokenswithUsd",
      "outputs": [],
      "stateMutability": "nonpayable",
      "type": "function"
    },
    {
      "inputs": [
        {
          "internalType": "address",
          "name": "",
          "type": "address"
        }
      ],
      "name": "claimCount",
      "outputs": [
        {
          "internalType": "uint256",
          "name": "",
          "type": "uint256"
        }
      ],
      "stateMutability": "view",
      "type": "function"
    },
    {
      "inputs": [],
      "name": "claimTokens",
      "outputs": [],
      "stateMutability": "nonpayable",
      "type": "function"
    },
    {
      "inputs": [],
      "name": "crowdsaleFinalized",
      "outputs": [
        {
          "internalType": "bool",
          "name": "",
          "type": "bool"
        }
      ],
      "stateMutability": "view",
      "type": "function"
    },
    {
      "inputs": [],
      "name": "finalizeCrowdsale",
      "outputs": [],
      "stateMutability": "nonpayable",
      "type": "function"
    },
    {
      "inputs": [],
      "name": "lockPeriod",
      "outputs": [
        {
          "internalType": "uint256",
          "name": "",
          "type": "uint256"
        }
      ],
      "stateMutability": "view",
      "type": "function"
    },
    {
      "inputs": [],
      "name": "owner",
      "outputs": [
        {
          "internalType": "address",
          "name": "",
          "type": "address"
        }
      ],
      "stateMutability": "view",
      "type": "function"
    },
    {
      "inputs": [
        {
          "internalType": "address payable",
          "name": "wallet_",
          "type": "address"
        }
      ],
      "name": "setWallet",
      "outputs": [
        {
          "internalType": "bool",
          "name": "",
          "type": "bool"
        }
      ],
      "stateMutability": "nonpayable",
      "type": "function"
    },
    {
      "inputs": [],
      "name": "soldTokens",
      "outputs": [
        {
          "internalType": "uint256",
          "name": "",
          "type": "uint256"
        }
      ],
      "stateMutability": "view",
      "type": "function"
    },
    {
      "inputs": [],
      "name": "token",
      "outputs": [
        {
          "internalType": "contract IERC20",
          "name": "",
          "type": "address"
        }
      ],
      "stateMutability": "view",
      "type": "function"
    },
    {
      "inputs": [
        {
          "internalType": "address",
          "name": "",
          "type": "address"
        }
      ],
      "name": "totalTokensPurchased",
      "outputs": [
        {
          "internalType": "uint256",
          "name": "",
          "type": "uint256"
        }
      ],
      "stateMutability": "view",
      "type": "function"
    },
    {
      "inputs": [
        {
          "internalType": "address",
          "name": "newOwner",
          "type": "address"
        }
      ],
      "name": "transferOwnership",
      "outputs": [],
      "stateMutability": "nonpayable",
      "type": "function"
    },
    {
      "inputs": [
        {
          "internalType": "uint256",
          "name": "lockPeriod_",
          "type": "uint256"
        }
      ],
      "name": "updateLockPeriod",
      "outputs": [],
      "stateMutability": "nonpayable",
      "type": "function"
    },
    {
      "inputs": [
        {
          "internalType": "uint256",
          "name": "tokenLimit_",
          "type": "uint256"
        }
      ],
      "name": "updateTokenLimit",
      "outputs": [],
      "stateMutability": "nonpayable",
      "type": "function"
    },
    {
      "inputs": [
        {
          "internalType": "uint256",
          "name": "rate_",
          "type": "uint256"
        }
      ],
      "name": "updateUsdRate",
      "outputs": [],
      "stateMutability": "nonpayable",
      "type": "function"
    },
    {
      "inputs": [
        {
          "internalType": "uint256",
          "name": "rate_",
          "type": "uint256"
        }
      ],
      "name": "updateWeiRate",
      "outputs": [],
      "stateMutability": "nonpayable",
      "type": "function"
    },
    {
      "inputs": [],
      "name": "usdRaised",
      "outputs": [
        {
          "internalType": "uint256",
          "name": "",
          "type": "uint256"
        }
      ],
      "stateMutability": "view",
      "type": "function"
    },
    {
      "inputs": [],
      "name": "usdRate",
      "outputs": [
        {
          "internalType": "uint256",
          "name": "",
          "type": "uint256"
        }
      ],
      "stateMutability": "view",
      "type": "function"
    },
    {
      "inputs": [],
      "name": "userTokenLimit",
      "outputs": [
        {
          "internalType": "uint256",
          "name": "",
          "type": "uint256"
        }
      ],
      "stateMutability": "view",
      "type": "function"
    },
    {
      "inputs": [],
      "name": "wallet",
      "outputs": [
        {
          "internalType": "address payable",
          "name": "",
          "type": "address"
        }
      ],
      "stateMutability": "view",
      "type": "function"
    },
    {
      "inputs": [],
      "name": "weiRaised",
      "outputs": [
        {
          "internalType": "uint256",
          "name": "",
          "type": "uint256"
        }
      ],
      "stateMutability": "view",
      "type": "function"
    },
    {
      "inputs": [],
      "name": "weiRate",
      "outputs": [
        {
          "internalType": "uint256",
          "name": "",
          "type": "uint256"
        }
      ],
      "stateMutability": "view",
      "type": "function"
    }
  ],
  "bytecode": "0x60806040523480156200001157600080fd5b50604051620037ff380380620037ff833981810160405281019062000037919062000289565b60016000806101000a81548160ff0219169083151502179055506000620000636200025360201b60201c565b905080600060016101000a81548173ffffffffffffffffffffffffffffffffffffffff021916908373ffffffffffffffffffffffffffffffffffffffff1602179055508073ffffffffffffffffffffffffffffffffffffffff16600073ffffffffffffffffffffffffffffffffffffffff167f8be0079c531659141344cd1fd0a4f28419497f9722a3daafe3b4186f6b6457e060405160405180910390a3508860098190555087600a8190555082600860006101000a81548173ffffffffffffffffffffffffffffffffffffffff021916908373ffffffffffffffffffffffffffffffffffffffff16021790555086600160006101000a81548173ffffffffffffffffffffffffffffffffffffffff021916908373ffffffffffffffffffffffffffffffffffffffff16021790555084600260006101000a81548173ffffffffffffffffffffffffffffffffffffffff021916908373ffffffffffffffffffffffffffffffffffffffff16021790555083600360006101000a81548173ffffffffffffffffffffffffffffffffffffffff021916908373ffffffffffffffffffffffffffffffffffffffff1602179055506000600360146101000a81548160ff0219169083151502179055508560048190555081600b8190555080600c81905550505050505050505050620003d4565b600033905090565b6000815190506200026c81620003a0565b92915050565b6000815190506200028381620003ba565b92915050565b60008060008060008060008060006101208a8c031215620002a957600080fd5b6000620002b98c828d0162000272565b9950506020620002cc8c828d0162000272565b9850506040620002df8c828d016200025b565b9750506060620002f28c828d0162000272565b9650506080620003058c828d016200025b565b95505060a0620003188c828d016200025b565b94505060c06200032b8c828d016200025b565b93505060e06200033e8c828d0162000272565b925050610100620003528c828d0162000272565b9150509295985092959850929598565b60006200036f8262000376565b9050919050565b600073ffffffffffffffffffffffffffffffffffffffff82169050919050565b6000819050919050565b620003ab8162000362565b8114620003b757600080fd5b50565b620003c58162000396565b8114620003d157600080fd5b50565b61341b80620003e46000396000f3fe60806040526004361061019c5760003560e01c806369c12cb7116100ec578063cf6d353f1161008a578063eadd94ec11610064578063eadd94ec1461057a578063ec8ac4d8146105a5578063f2fde38b146105c1578063fc0c546a146105ea5761019c565b8063cf6d353f146104eb578063d6c3a5a414610514578063deaa59df1461053d5761019c565b80638da5cb5b116100c65780638da5cb5b1461044557806391db7b0d14610470578063962a523514610499578063ae1ebf6a146104c25761019c565b806369c12cb7146103a05780637384824a146103dd57806379b37a861461041a5761019c565b806348ecc6441161015957806352b2e72a1161013357806352b2e72a146102f8578063597d4601146103215780635ed9ebfc1461034c5780635f93b125146103775761019c565b806348ecc644146102775780634d502df8146102a2578063521eb273146102cd5761019c565b8063067946ff146101a15780630bf318a3146101ca57806325ebf194146101e15780633fd8b02f1461020a5780634042b66f1461023557806348c54b9d14610260575b600080fd5b3480156101ad57600080fd5b506101c860048036038101906101c39190612567565b610615565b005b3480156101d657600080fd5b506101df610831565b005b3480156101ed57600080fd5b5061020860048036038101906102039190612567565b61091a565b005b34801561021657600080fd5b5061021f610b36565b60405161022c9190612c44565b60405180910390f35b34801561024157600080fd5b5061024a610b3c565b6040516102579190612c44565b60405180910390f35b34801561026c57600080fd5b50610275610b42565b005b34801561028357600080fd5b5061028c6110d7565b6040516102999190612c44565b60405180910390f35b3480156102ae57600080fd5b506102b76110dd565b6040516102c49190612c44565b60405180910390f35b3480156102d957600080fd5b506102e26110e3565b6040516102ef9190612915565b60405180910390f35b34801561030457600080fd5b5061031f600480360381019061031a9190612567565b61110d565b005b34801561032d57600080fd5b50610336611193565b60405161034391906129ce565b60405180910390f35b34801561035857600080fd5b506103616111a6565b60405161036e9190612c44565b60405180910390f35b34801561038357600080fd5b5061039e60048036038101906103999190612567565b6111ac565b005b3480156103ac57600080fd5b506103c760048036038101906103c29190612489565b611232565b6040516103d49190612c44565b60405180910390f35b3480156103e957600080fd5b5061040460048036038101906103ff9190612489565b61124a565b6040516104119190612c44565b60405180910390f35b34801561042657600080fd5b5061042f611262565b60405161043c9190612c44565b60405180910390f35b34801561045157600080fd5b5061045a611268565b60405161046791906128fa565b60405180910390f35b34801561047c57600080fd5b5061049760048036038101906104929190612567565b611291565b005b3480156104a557600080fd5b506104c060048036038101906104bb9190612567565b61135b565b005b3480156104ce57600080fd5b506104e960048036038101906104e491906124db565b611577565b005b3480156104f757600080fd5b50610512600480360381019061050d9190612567565b611952565b005b34801561052057600080fd5b5061053b60048036038101906105369190612567565b6119d8565b005b34801561054957600080fd5b50610564600480360381019061055f91906124b2565b611a83565b60405161057191906129ce565b60405180910390f35b34801561058657600080fd5b5061058f611bbb565b60405161059c9190612c44565b60405180910390f35b6105bf60048036038101906105ba9190612489565b611bc1565b005b3480156105cd57600080fd5b506105e860048036038101906105e39190612489565b611e17565b005b3480156105f657600080fd5b506105ff611fc3565b60405161060c91906129e9565b60405180910390f35b61061d611fed565b73ffffffffffffffffffffffffffffffffffffffff1661063b611268565b73ffffffffffffffffffffffffffffffffffffffff1614610691576040517f08c379a000000000000000000000000000000000000000000000000000000000815260040161068890612b24565b60405180910390fd5b80600160009054906101000a900473ffffffffffffffffffffffffffffffffffffffff1673ffffffffffffffffffffffffffffffffffffffff166370a08231306040518263ffffffff1660e01b81526004016106ed91906128fa565b60206040518083038186803b15801561070557600080fd5b505afa158015610719573d6000803e3d6000fd5b505050506040513d601f19601f8201168201806040525081019061073d9190612590565b101561077e576040517f08c379a000000000000000000000000000000000000000000000000000000000815260040161077590612a84565b60405180910390fd5b600160009054906101000a900473ffffffffffffffffffffffffffffffffffffffff1673ffffffffffffffffffffffffffffffffffffffff1663a9059cbb33836040518363ffffffff1660e01b81526004016107db9291906129a5565b602060405180830381600087803b1580156107f557600080fd5b505af1158015610809573d6000803e3d6000fd5b505050506040513d601f19601f8201168201806040525081019061082d919061253e565b5050565b610839611fed565b73ffffffffffffffffffffffffffffffffffffffff16610857611268565b73ffffffffffffffffffffffffffffffffffffffff16146108ad576040517f08c379a00000000000000000000000000000000000000000000000000000000081526004016108a490612b24565b60405180910390fd5b600360149054906101000a900460ff16156108fd576040517f08c379a00000000000000000000000000000000000000000000000000000000081526004016108f490612ba4565b60405180910390fd5b6001600360146101000a81548160ff021916908315150217905550565b610922611fed565b73ffffffffffffffffffffffffffffffffffffffff16610940611268565b73ffffffffffffffffffffffffffffffffffffffff1614610996576040517f08c379a000000000000000000000000000000000000000000000000000000000815260040161098d90612b24565b60405180910390fd5b80600360009054906101000a900473ffffffffffffffffffffffffffffffffffffffff1673ffffffffffffffffffffffffffffffffffffffff166370a08231306040518263ffffffff1660e01b81526004016109f291906128fa565b60206040518083038186803b158015610a0a57600080fd5b505afa158015610a1e573d6000803e3d6000fd5b505050506040513d601f19601f82011682018060405250810190610a429190612590565b1015610a83576040517f08c379a0000000000000000000000000000000000000000000000000000000008152600401610a7a90612a84565b60405180910390fd5b600360009054906101000a900473ffffffffffffffffffffffffffffffffffffffff1673ffffffffffffffffffffffffffffffffffffffff1663a9059cbb33836040518363ffffffff1660e01b8152600401610ae09291906129a5565b602060405180830381600087803b158015610afa57600080fd5b505af1158015610b0e573d6000803e3d6000fd5b505050506040513d601f19601f82011682018060405250810190610b32919061253e565b5050565b600b5481565b60065481565b600b544211610b86576040517f08c379a0000000000000000000000000000000000000000000000000000000008152600401610b7d90612b04565b60405180910390fd5b600d600e60003373ffffffffffffffffffffffffffffffffffffffff1673ffffffffffffffffffffffffffffffffffffffff1681526020019081526020016000205410610c08576040517f08c379a0000000000000000000000000000000000000000000000000000000008152600401610bff90612a04565b60405180910390fd5b6000610c33610e10610c25600b5442611ff590919063ffffffff16565b61200b90919063ffffffff16565b9050600e60003373ffffffffffffffffffffffffffffffffffffffff1673ffffffffffffffffffffffffffffffffffffffff168152602001908152602001600020548111610cb6576040517f08c379a0000000000000000000000000000000000000000000000000000000008152600401610cad90612ae4565b60405180910390fd5b600c811115610cc457600c90505b6000600e60003373ffffffffffffffffffffffffffffffffffffffff1673ffffffffffffffffffffffffffffffffffffffff1681526020019081526020016000205490505b81811015610ed1576001600e60003373ffffffffffffffffffffffffffffffffffffffff1673ffffffffffffffffffffffffffffffffffffffff1681526020019081526020016000206000828254610d619190612cc0565b925050819055506000610dd06064610dc26006600d60003373ffffffffffffffffffffffffffffffffffffffff1673ffffffffffffffffffffffffffffffffffffffff1681526020019081526020016000205461202190919063ffffffff16565b61200b90919063ffffffff16565b9050610e0b610dfc6064610dee60028561202190919063ffffffff16565b61200b90919063ffffffff16565b8261203790919063ffffffff16565b9050600160009054906101000a900473ffffffffffffffffffffffffffffffffffffffff1673ffffffffffffffffffffffffffffffffffffffff1663a9059cbb33836040518363ffffffff1660e01b8152600401610e6a9291906129a5565b602060405180830381600087803b158015610e8457600080fd5b505af1158015610e98573d6000803e3d6000fd5b505050506040513d601f19601f82011682018060405250810190610ebc919061253e565b50508080610ec990612ebc565b915050610d09565b50600c600e60003373ffffffffffffffffffffffffffffffffffffffff1673ffffffffffffffffffffffffffffffffffffffff16815260200190815260200160002054148015610f215750600c81145b156110d4576001600e60003373ffffffffffffffffffffffffffffffffffffffff1673ffffffffffffffffffffffffffffffffffffffff1681526020019081526020016000206000828254610f769190612cc0565b925050819055506000610fe56064610fd76008600d60003373ffffffffffffffffffffffffffffffffffffffff1673ffffffffffffffffffffffffffffffffffffffff1681526020019081526020016000205461202190919063ffffffff16565b61200b90919063ffffffff16565b9050611020611011606461100360028561202190919063ffffffff16565b61200b90919063ffffffff16565b8261203790919063ffffffff16565b9050600160009054906101000a900473ffffffffffffffffffffffffffffffffffffffff1673ffffffffffffffffffffffffffffffffffffffff1663a9059cbb33836040518363ffffffff1660e01b815260040161107f9291906129a5565b602060405180830381600087803b15801561109957600080fd5b505af11580156110ad573d6000803e3d6000fd5b505050506040513d601f19601f820116820180604052508101906110d1919061253e565b50505b50565b600c5481565b60095481565b6000600860009054906101000a900473ffffffffffffffffffffffffffffffffffffffff16905090565b611115611fed565b73ffffffffffffffffffffffffffffffffffffffff16611133611268565b73ffffffffffffffffffffffffffffffffffffffff1614611189576040517f08c379a000000000000000000000000000000000000000000000000000000000815260040161118090612b24565b60405180910390fd5b80600a8190555050565b600360149054906101000a900460ff1681565b60055481565b6111b4611fed565b73ffffffffffffffffffffffffffffffffffffffff166111d2611268565b73ffffffffffffffffffffffffffffffffffffffff1614611228576040517f08c379a000000000000000000000000000000000000000000000000000000000815260040161121f90612b24565b60405180910390fd5b80600c8190555050565b600e6020528060005260406000206000915090505481565b600d6020528060005260406000206000915090505481565b600a5481565b60008060019054906101000a900473ffffffffffffffffffffffffffffffffffffffff16905090565b611299611fed565b73ffffffffffffffffffffffffffffffffffffffff166112b7611268565b73ffffffffffffffffffffffffffffffffffffffff161461130d576040517f08c379a000000000000000000000000000000000000000000000000000000000815260040161130490612b24565b60405180910390fd5b600b544210611351576040517f08c379a000000000000000000000000000000000000000000000000000000000815260040161134890612ac4565b60405180910390fd5b80600b8190555050565b611363611fed565b73ffffffffffffffffffffffffffffffffffffffff16611381611268565b73ffffffffffffffffffffffffffffffffffffffff16146113d7576040517f08c379a00000000000000000000000000000000000000000000000000000000081526004016113ce90612b24565b60405180910390fd5b80600260009054906101000a900473ffffffffffffffffffffffffffffffffffffffff1673ffffffffffffffffffffffffffffffffffffffff166370a08231306040518263ffffffff1660e01b815260040161143391906128fa565b60206040518083038186803b15801561144b57600080fd5b505afa15801561145f573d6000803e3d6000fd5b505050506040513d601f19601f820116820180604052508101906114839190612590565b10156114c4576040517f08c379a00000000000000000000000000000000000000000000000000000000081526004016114bb90612a84565b60405180910390fd5b600260009054906101000a900473ffffffffffffffffffffffffffffffffffffffff1673ffffffffffffffffffffffffffffffffffffffff1663a9059cbb33836040518363ffffffff1660e01b81526004016115219291906129a5565b602060405180830381600087803b15801561153b57600080fd5b505af115801561154f573d6000803e3d6000fd5b505050506040513d601f19601f82011682018060405250810190611573919061253e565b5050565b60008054906101000a900460ff166115c4576040517f08c379a00000000000000000000000000000000000000000000000000000000081526004016115bb90612c04565b60405180910390fd5b60008060006101000a81548160ff0219169083151502179055508015158215151415611625576040517f08c379a000000000000000000000000000000000000000000000000000000000815260040161161c90612b44565b60405180910390fd5b60008311611668576040517f08c379a000000000000000000000000000000000000000000000000000000000815260040161165f90612a64565b60405180910390fd5b600360149054906101000a900460ff16156116b8576040517f08c379a00000000000000000000000000000000000000000000000000000000081526004016116af90612b84565b60405180910390fd5b600073ffffffffffffffffffffffffffffffffffffffff168473ffffffffffffffffffffffffffffffffffffffff161415611728576040517f08c379a000000000000000000000000000000000000000000000000000000000815260040161171f90612b64565b60405180910390fd5b600061173584600061204d565b905061174c8460075461203790919063ffffffff16565b6007819055508261180d57600360009054906101000a900473ffffffffffffffffffffffffffffffffffffffff1673ffffffffffffffffffffffffffffffffffffffff166323b872dd3330876040518463ffffffff1660e01b81526004016117b69392919061296e565b602060405180830381600087803b1580156117d057600080fd5b505af11580156117e4573d6000803e3d6000fd5b505050506040513d601f19601f82011682018060405250810190611808919061253e565b6118bf565b600260009054906101000a900473ffffffffffffffffffffffffffffffffffffffff1673ffffffffffffffffffffffffffffffffffffffff166323b872dd3330876040518463ffffffff1660e01b815260040161186c9392919061296e565b602060405180830381600087803b15801561188657600080fd5b505af115801561189a573d6000803e3d6000fd5b505050506040513d601f19601f820116820180604052508101906118be919061253e565b5b506118ca85826120a3565b8473ffffffffffffffffffffffffffffffffffffffff163373ffffffffffffffffffffffffffffffffffffffff167f6faf93231a456e552dbc9961f58d9713ee4f2e69d15f1975b050ef0911053a7b8684604051611929929190612c5f565b60405180910390a35060016000806101000a81548160ff02191690831515021790555050505050565b61195a611fed565b73ffffffffffffffffffffffffffffffffffffffff16611978611268565b73ffffffffffffffffffffffffffffffffffffffff16146119ce576040517f08c379a00000000000000000000000000000000000000000000000000000000081526004016119c590612b24565b60405180910390fd5b8060098190555050565b6119e0611fed565b73ffffffffffffffffffffffffffffffffffffffff166119fe611268565b73ffffffffffffffffffffffffffffffffffffffff1614611a54576040517f08c379a0000000000000000000000000000000000000000000000000000000008152600401611a4b90612b24565b60405180910390fd5b611a80600860009054906101000a900473ffffffffffffffffffffffffffffffffffffffff168261231c565b50565b6000611a8d611fed565b73ffffffffffffffffffffffffffffffffffffffff16611aab611268565b73ffffffffffffffffffffffffffffffffffffffff1614611b01576040517f08c379a0000000000000000000000000000000000000000000000000000000008152600401611af890612b24565b60405180910390fd5b600073ffffffffffffffffffffffffffffffffffffffff168273ffffffffffffffffffffffffffffffffffffffff161415611b71576040517f08c379a0000000000000000000000000000000000000000000000000000000008152600401611b6890612be4565b60405180910390fd5b81600860006101000a81548173ffffffffffffffffffffffffffffffffffffffff021916908373ffffffffffffffffffffffffffffffffffffffff16021790555060019050919050565b60075481565b60008054906101000a900460ff16611c0e576040517f08c379a0000000000000000000000000000000000000000000000000000000008152600401611c0590612c04565b60405180910390fd5b60008060006101000a81548160ff021916908315150217905550600360149054906101000a900460ff1615611c78576040517f08c379a0000000000000000000000000000000000000000000000000000000008152600401611c6f90612b84565b60405180910390fd5b600073ffffffffffffffffffffffffffffffffffffffff168173ffffffffffffffffffffffffffffffffffffffff161415611ce8576040517f08c379a0000000000000000000000000000000000000000000000000000000008152600401611cdf90612b64565b60405180910390fd5b6000341415611d2c576040517f08c379a0000000000000000000000000000000000000000000000000000000008152600401611d2390612c24565b60405180910390fd5b60003490506000611d3e82600161204d565b9050611d558260065461203790919063ffffffff16565b600681905550611d87600860009054906101000a900473ffffffffffffffffffffffffffffffffffffffff163461231c565b611d9183826120a3565b8273ffffffffffffffffffffffffffffffffffffffff163373ffffffffffffffffffffffffffffffffffffffff167f6faf93231a456e552dbc9961f58d9713ee4f2e69d15f1975b050ef0911053a7b8484604051611df0929190612c5f565b60405180910390a3505060016000806101000a81548160ff02191690831515021790555050565b611e1f611fed565b73ffffffffffffffffffffffffffffffffffffffff16611e3d611268565b73ffffffffffffffffffffffffffffffffffffffff1614611e93576040517f08c379a0000000000000000000000000000000000000000000000000000000008152600401611e8a90612b24565b60405180910390fd5b600073ffffffffffffffffffffffffffffffffffffffff168173ffffffffffffffffffffffffffffffffffffffff161415611f03576040517f08c379a0000000000000000000000000000000000000000000000000000000008152600401611efa90612a24565b60405180910390fd5b8073ffffffffffffffffffffffffffffffffffffffff16600060019054906101000a900473ffffffffffffffffffffffffffffffffffffffff1673ffffffffffffffffffffffffffffffffffffffff167f8be0079c531659141344cd1fd0a4f28419497f9722a3daafe3b4186f6b6457e060405160405180910390a380600060016101000a81548173ffffffffffffffffffffffffffffffffffffffff021916908373ffffffffffffffffffffffffffffffffffffffff16021790555050565b6000600160009054906101000a900473ffffffffffffffffffffffffffffffffffffffff16905090565b600033905090565b600081836120039190612da1565b905092915050565b600081836120199190612d16565b905092915050565b6000818361202f9190612d47565b905092915050565b600081836120459190612cc0565b905092915050565b60008161206e57612069600a548461202190919063ffffffff16565b61209b565b61209a6402540be40061208c6009548661202190919063ffffffff16565b61200b90919063ffffffff16565b5b905092915050565b6004546120bb8260055461203790919063ffffffff16565b11156120fc576040517f08c379a00000000000000000000000000000000000000000000000000000000081526004016120f390612bc4565b60405180910390fd5b600c5461215182600d60008673ffffffffffffffffffffffffffffffffffffffff1673ffffffffffffffffffffffffffffffffffffffff1681526020019081526020016000205461203790919063ffffffff16565b1115612192576040517f08c379a000000000000000000000000000000000000000000000000000000000815260040161218990612aa4565b60405180910390fd5b6121a78160055461203790919063ffffffff16565b600581905550600160009054906101000a900473ffffffffffffffffffffffffffffffffffffffff1673ffffffffffffffffffffffffffffffffffffffff1663a9059cbb83612213606461220560148761202190919063ffffffff16565b61200b90919063ffffffff16565b6040518363ffffffff1660e01b81526004016122309291906129a5565b602060405180830381600087803b15801561224a57600080fd5b505af115801561225e573d6000803e3d6000fd5b505050506040513d601f19601f82011682018060405250810190612282919061253e565b506122d581600d60008573ffffffffffffffffffffffffffffffffffffffff1673ffffffffffffffffffffffffffffffffffffffff1681526020019081526020016000205461203790919063ffffffff16565b600d60008473ffffffffffffffffffffffffffffffffffffffff1673ffffffffffffffffffffffffffffffffffffffff168152602001908152602001600020819055505050565b6000808373ffffffffffffffffffffffffffffffffffffffff1683604051612343906128e5565b60006040518083038185875af1925050503d8060008114612380576040519150601f19603f3d011682016040523d82523d6000602084013e612385565b606091505b5091509150816123ca576040517f08c379a00000000000000000000000000000000000000000000000000000000081526004016123c190612a44565b60405180910390fd5b7fe959df3e0a6d66537da1b783889fbd75aaec799ac95f4253581ea017122006988484836040516123fd93929190612930565b60405180910390a150505050565b60008135905061241a81613389565b92915050565b60008135905061242f816133a0565b92915050565b600081359050612444816133b7565b92915050565b600081519050612459816133b7565b92915050565b60008135905061246e816133ce565b92915050565b600081519050612483816133ce565b92915050565b60006020828403121561249b57600080fd5b60006124a98482850161240b565b91505092915050565b6000602082840312156124c457600080fd5b60006124d284828501612420565b91505092915050565b600080600080608085870312156124f157600080fd5b60006124ff8782880161240b565b94505060206125108782880161245f565b935050604061252187828801612435565b925050606061253287828801612435565b91505092959194509250565b60006020828403121561255057600080fd5b600061255e8482850161244a565b91505092915050565b60006020828403121561257957600080fd5b60006125878482850161245f565b91505092915050565b6000602082840312156125a257600080fd5b60006125b084828501612474565b91505092915050565b6125c281612e2f565b82525050565b6125d181612de7565b82525050565b6125e081612dd5565b82525050565b6125ef81612df9565b82525050565b600061260082612c88565b61260a8185612c93565b935061261a818560208601612e89565b61262381612f63565b840191505092915050565b61263781612e41565b82525050565b600061264a601e83612caf565b915061265582612f74565b602082019050919050565b600061266d602683612caf565b915061267882612f9d565b604082019050919050565b6000612690601483612caf565b915061269b82612fec565b602082019050919050565b60006126b3601983612caf565b91506126be82613015565b602082019050919050565b60006126d6602583612caf565b91506126e18261303e565b604082019050919050565b60006126f9602183612caf565b91506127048261308d565b604082019050919050565b600061271c602c83612caf565b9150612727826130dc565b604082019050919050565b600061273f601f83612caf565b915061274a8261312b565b602082019050919050565b6000612762602b83612caf565b915061276d82613154565b604082019050919050565b6000612785602083612caf565b9150612790826131a3565b602082019050919050565b60006127a8603183612caf565b91506127b3826131cc565b604082019050919050565b60006127cb602a83612caf565b91506127d68261321b565b604082019050919050565b60006127ee600083612ca4565b91506127f98261326a565b600082019050919050565b6000612811601783612caf565b915061281c8261326d565b602082019050919050565b6000612834602283612caf565b915061283f82613296565b604082019050919050565b6000612857601183612caf565b9150612862826132e5565b602082019050919050565b600061287a601783612caf565b91506128858261330e565b602082019050919050565b600061289d601f83612caf565b91506128a882613337565b602082019050919050565b60006128c0601983612caf565b91506128cb82613360565b602082019050919050565b6128df81612e25565b82525050565b60006128f0826127e1565b9150819050919050565b600060208201905061290f60008301846125d7565b92915050565b600060208201905061292a60008301846125c8565b92915050565b600060608201905061294560008301866125b9565b61295260208301856128d6565b818103604083015261296481846125f5565b9050949350505050565b600060608201905061298360008301866125d7565b61299060208301856125d7565b61299d60408301846128d6565b949350505050565b60006040820190506129ba60008301856125d7565b6129c760208301846128d6565b9392505050565b60006020820190506129e360008301846125e6565b92915050565b60006020820190506129fe600083018461262e565b92915050565b60006020820190508181036000830152612a1d8161263d565b9050919050565b60006020820190508181036000830152612a3d81612660565b9050919050565b60006020820190508181036000830152612a5d81612683565b9050919050565b60006020820190508181036000830152612a7d816126a6565b9050919050565b60006020820190508181036000830152612a9d816126c9565b9050919050565b60006020820190508181036000830152612abd816126ec565b9050919050565b60006020820190508181036000830152612add8161270f565b9050919050565b60006020820190508181036000830152612afd81612732565b9050919050565b60006020820190508181036000830152612b1d81612755565b9050919050565b60006020820190508181036000830152612b3d81612778565b9050919050565b60006020820190508181036000830152612b5d8161279b565b9050919050565b60006020820190508181036000830152612b7d816127be565b9050919050565b60006020820190508181036000830152612b9d81612804565b9050919050565b60006020820190508181036000830152612bbd81612827565b9050919050565b60006020820190508181036000830152612bdd8161284a565b9050919050565b60006020820190508181036000830152612bfd8161286d565b9050919050565b60006020820190508181036000830152612c1d81612890565b9050919050565b60006020820190508181036000830152612c3d816128b3565b9050919050565b6000602082019050612c5960008301846128d6565b92915050565b6000604082019050612c7460008301856128d6565b612c8160208301846128d6565b9392505050565b600081519050919050565b600082825260208201905092915050565b600081905092915050565b600082825260208201905092915050565b6000612ccb82612e25565b9150612cd683612e25565b9250827fffffffffffffffffffffffffffffffffffffffffffffffffffffffffffffffff03821115612d0b57612d0a612f05565b5b828201905092915050565b6000612d2182612e25565b9150612d2c83612e25565b925082612d3c57612d3b612f34565b5b828204905092915050565b6000612d5282612e25565b9150612d5d83612e25565b9250817fffffffffffffffffffffffffffffffffffffffffffffffffffffffffffffffff0483118215151615612d9657612d95612f05565b5b828202905092915050565b6000612dac82612e25565b9150612db783612e25565b925082821015612dca57612dc9612f05565b5b828203905092915050565b6000612de082612e05565b9050919050565b6000612df282612e05565b9050919050565b60008115159050919050565b600073ffffffffffffffffffffffffffffffffffffffff82169050919050565b6000819050919050565b6000612e3a82612e65565b9050919050565b6000612e4c82612e53565b9050919050565b6000612e5e82612e05565b9050919050565b6000612e7082612e77565b9050919050565b6000612e8282612e05565b9050919050565b60005b83811015612ea7578082015181840152602081019050612e8c565b83811115612eb6576000848401525b50505050565b6000612ec782612e25565b91507fffffffffffffffffffffffffffffffffffffffffffffffffffffffffffffffff821415612efa57612ef9612f05565b5b600182019050919050565b7f4e487b7100000000000000000000000000000000000000000000000000000000600052601160045260246000fd5b7f4e487b7100000000000000000000000000000000000000000000000000000000600052601260045260246000fd5b6000601f19601f8301169050919050565b7f43726f776473616c653a204e6f206d6f726520636c61696d73206c6566740000600082015250565b7f4f776e61626c653a206e6577206f776e657220697320746865207a65726f206160008201527f6464726573730000000000000000000000000000000000000000000000000000602082015250565b7f4661696c656420746f2073656e64204574686572000000000000000000000000600082015250565b7f43726f776473616c653a20557364416d6f756e74206973203000000000000000600082015250565b7f436f6e747261637420646f6573206e6f74206861766520656e6f75676820626160008201527f6c616e6365000000000000000000000000000000000000000000000000000000602082015250565b7f55736572206d617820616c6c6f636174696f6e206c696d69742072656163686560008201527f6400000000000000000000000000000000000000000000000000000000000000602082015250565b7f43616e206e6f7420757064617465206c6f636b20706572696f64206f6e63652060008201527f6974206973207061737365640000000000000000000000000000000000000000602082015250565b7f43726f776473616c653a204e6f7468696e6720746f20636c61696d2079657400600082015250565b7f43726f776473616c653a2043616e206e6f7420636c61696d20647572696e672060008201527f6c6f636b20706572696f64000000000000000000000000000000000000000000602082015250565b7f4f776e61626c653a2063616c6c6572206973206e6f7420746865206f776e6572600082015250565b7f43726f776473616c653a204f6e65206f66207468652076616c75652073686f7560008201527f6c64206265207061737365642074727565000000000000000000000000000000602082015250565b7f43726f776473616c653a2062656e656669636961727920697320746865207a6560008201527f726f206164647265737300000000000000000000000000000000000000000000602082015250565b50565b7f43726f776473616c652069732066696e616c697a656421000000000000000000600082015250565b7f43726f776473616c653a2043726f776473616c652069732066696e616c697a6560008201527f6421000000000000000000000000000000000000000000000000000000000000602082015250565b7f49434f206c696d69742072656163686564000000000000000000000000000000600082015250565b7f496e76616c6964206d696e746572206164647265737321000000000000000000600082015250565b7f5265656e7472616e637947756172643a207265656e7472616e742063616c6c00600082015250565b7f43726f776473616c653a20776569416d6f756e74206973203000000000000000600082015250565b61339281612dd5565b811461339d57600080fd5b50565b6133a981612de7565b81146133b457600080fd5b50565b6133c081612df9565b81146133cb57600080fd5b50565b6133d781612e25565b81146133e257600080fd5b5056fea26469706673582212204ccb2db11140cdc904666da411fafb0052b2b0d37da77a1c8c0d83bca8f3882864736f6c63430008040033",
  "linkReferences": {},
  "deployedLinkReferences": {}
}