{
  "_format": "hh-sol-artifact-1",
  "contractName": "FunKid",
  "sourceName": "contracts/funkid.sol",
  "abi": [
    {
      "inputs": [],
      "stateMutability": "nonpayable",
      "type": "constructor"
    },
    {
      "anonymous": false,
      "inputs": [
        {
          "indexed": true,
          "internalType": "address",
          "name": "previousOwner",
          "type": "address"
        },
        {
          "indexed": true,
          "internalType": "address",
          "name": "newOwner",
          "type": "address"
        }
      ],
      "name": "OwnershipTransferred",
      "type": "event"
    },
    {
      "anonymous": false,
      "inputs": [
        {
          "indexed": false,
          "internalType": "string",
          "name": "txId",
          "type": "string"
        },
        {
          "indexed": false,
          "internalType": "address",
          "name": "sender",
          "type": "address"
        },
        {
          "indexed": false,
          "internalType": "address",
          "name": "receiver",
          "type": "address"
        },
        {
          "indexed": false,
          "internalType": "uint256",
          "name": "amount",
          "type": "uint256"
        },
        {
          "indexed": false,
          "internalType": "uint256",
          "name": "timestamp",
          "type": "uint256"
        }
      ],
      "name": "PaymentProcessed",
      "type": "event"
    },
    {
      "inputs": [],
      "name": "owner",
      "outputs": [
        {
          "internalType": "address",
          "name": "",
          "type": "address"
        }
      ],
      "stateMutability": "view",
      "type": "function"
    },
    {
      "inputs": [
        {
          "internalType": "string",
          "name": "txId_",
          "type": "string"
        },
        {
          "internalType": "address",
          "name": "recepient_",
          "type": "address"
        },
        {
          "internalType": "uint256",
          "name": "amount_",
          "type": "uint256"
        }
      ],
      "name": "processPayment",
      "outputs": [],
      "stateMutability": "payable",
      "type": "function"
    },
    {
      "inputs": [
        {
          "internalType": "address",
          "name": "newOwner",
          "type": "address"
        }
      ],
      "name": "transferOwnership",
      "outputs": [],
      "stateMutability": "nonpayable",
      "type": "function"
    },
    {
      "inputs": [
        {
          "internalType": "string",
          "name": "",
          "type": "string"
        }
      ],
      "name": "txAmount",
      "outputs": [
        {
          "internalType": "uint256",
          "name": "",
          "type": "uint256"
        }
      ],
      "stateMutability": "view",
      "type": "function"
    },
    {
      "inputs": [
        {
          "internalType": "string",
          "name": "",
          "type": "string"
        }
      ],
      "name": "txReceiver",
      "outputs": [
        {
          "internalType": "address",
          "name": "",
          "type": "address"
        }
      ],
      "stateMutability": "view",
      "type": "function"
    },
    {
      "inputs": [
        {
          "internalType": "string",
          "name": "",
          "type": "string"
        }
      ],
      "name": "txSender",
      "outputs": [
        {
          "internalType": "address",
          "name": "",
          "type": "address"
        }
      ],
      "stateMutability": "view",
      "type": "function"
    },
    {
      "inputs": [
        {
          "internalType": "string",
          "name": "",
          "type": "string"
        }
      ],
      "name": "txStatus",
      "outputs": [
        {
          "internalType": "bool",
          "name": "",
          "type": "bool"
        }
      ],
      "stateMutability": "view",
      "type": "function"
    },
    {
      "inputs": [
        {
          "internalType": "string",
          "name": "",
          "type": "string"
        }
      ],
      "name": "txTime",
      "outputs": [
        {
          "internalType": "uint256",
          "name": "",
          "type": "uint256"
        }
      ],
      "stateMutability": "view",
      "type": "function"
    }
  ],
  "bytecode": "0x608060405234801561001057600080fd5b5060006100216100c460201b60201c565b9050806000806101000a81548173ffffffffffffffffffffffffffffffffffffffff021916908373ffffffffffffffffffffffffffffffffffffffff1602179055508073ffffffffffffffffffffffffffffffffffffffff16600073ffffffffffffffffffffffffffffffffffffffff167f8be0079c531659141344cd1fd0a4f28419497f9722a3daafe3b4186f6b6457e060405160405180910390a3506100cc565b600033905090565b610ffe806100db6000396000f3fe60806040526004361061007b5760003560e01c8063ba1dde6f1161004e578063ba1dde6f14610162578063d9a5721e1461019f578063f0235312146101bb578063f2fde38b146101f85761007b565b806351103b28146100805780635c57e933146100bd5780638da5cb5b146100fa5780638f926c5c14610125575b600080fd5b34801561008c57600080fd5b506100a760048036038101906100a2919061092d565b610221565b6040516100b49190610b8d565b60405180910390f35b3480156100c957600080fd5b506100e460048036038101906100df919061092d565b61026a565b6040516100f19190610cdd565b60405180910390f35b34801561010657600080fd5b5061010f610298565b60405161011c9190610b8d565b60405180910390f35b34801561013157600080fd5b5061014c6004803603810190610147919061092d565b6102c1565b6040516101599190610cdd565b60405180910390f35b34801561016e57600080fd5b506101896004803603810190610184919061092d565b6102ef565b6040516101969190610b8d565b60405180910390f35b6101b960048036038101906101b4919061096e565b610338565b005b3480156101c757600080fd5b506101e260048036038101906101dd919061092d565b6105da565b6040516101ef9190610ba8565b60405180910390f35b34801561020457600080fd5b5061021f600480360381019061021a9190610904565b610610565b005b6002818051602081018201805184825260208301602085012081835280955050505050506000915054906101000a900473ffffffffffffffffffffffffffffffffffffffff1681565b6001818051602081018201805184825260208301602085012081835280955050505050506000915090505481565b60008060009054906101000a900473ffffffffffffffffffffffffffffffffffffffff16905090565b6004818051602081018201805184825260208301602085012081835280955050505050506000915090505481565b6003818051602081018201805184825260208301602085012081835280955050505050506000915054906101000a900473ffffffffffffffffffffffffffffffffffffffff1681565b34811461037a576040517f08c379a000000000000000000000000000000000000000000000000000000000815260040161037190610c9d565b60405180910390fd5b8173ffffffffffffffffffffffffffffffffffffffff163373ffffffffffffffffffffffffffffffffffffffff1614156103e9576040517f08c379a00000000000000000000000000000000000000000000000000000000081526004016103e090610c7d565b60405180910390fd5b6005836040516103f99190610b61565b908152602001604051809103902060009054906101000a900460ff1615610455576040517f08c379a000000000000000000000000000000000000000000000000000000000815260040161044c90610c3d565b60405180910390fd5b426001846040516104669190610b61565b908152602001604051809103902081905550346004846040516104899190610b61565b908152602001604051809103902081905550816003846040516104ac9190610b61565b908152602001604051809103902060006101000a81548173ffffffffffffffffffffffffffffffffffffffff021916908373ffffffffffffffffffffffffffffffffffffffff160217905550336002846040516105099190610b61565b908152602001604051809103902060006101000a81548173ffffffffffffffffffffffffffffffffffffffff021916908373ffffffffffffffffffffffffffffffffffffffff16021790555060016005846040516105679190610b61565b908152602001604051809103902060006101000a81548160ff02191690831515021790555061059682826107b9565b7fdbee4180891fc092dff37a25ad8932617ce3e84d6a147867a593a04efef6f97a83338484426040516105cd959493929190610bc3565b60405180910390a1505050565b6005818051602081018201805184825260208301602085012081835280955050505050506000915054906101000a900460ff1681565b61061861086a565b73ffffffffffffffffffffffffffffffffffffffff16610636610298565b73ffffffffffffffffffffffffffffffffffffffff161461068c576040517f08c379a000000000000000000000000000000000000000000000000000000000815260040161068390610cbd565b60405180910390fd5b600073ffffffffffffffffffffffffffffffffffffffff168173ffffffffffffffffffffffffffffffffffffffff1614156106fc576040517f08c379a00000000000000000000000000000000000000000000000000000000081526004016106f390610c1d565b60405180910390fd5b8073ffffffffffffffffffffffffffffffffffffffff1660008054906101000a900473ffffffffffffffffffffffffffffffffffffffff1673ffffffffffffffffffffffffffffffffffffffff167f8be0079c531659141344cd1fd0a4f28419497f9722a3daafe3b4186f6b6457e060405160405180910390a3806000806101000a81548173ffffffffffffffffffffffffffffffffffffffff021916908373ffffffffffffffffffffffffffffffffffffffff16021790555050565b60008273ffffffffffffffffffffffffffffffffffffffff16826040516107df90610b78565b60006040518083038185875af1925050503d806000811461081c576040519150601f19603f3d011682016040523d82523d6000602084013e610821565b606091505b5050905080610865576040517f08c379a000000000000000000000000000000000000000000000000000000000815260040161085c90610c5d565b60405180910390fd5b505050565b600033905090565b600061088561088084610d1d565b610cf8565b90508281526020810184848401111561089d57600080fd5b6108a8848285610dc8565b509392505050565b6000813590506108bf81610f9a565b92915050565b600082601f8301126108d657600080fd5b81356108e6848260208601610872565b91505092915050565b6000813590506108fe81610fb1565b92915050565b60006020828403121561091657600080fd5b6000610924848285016108b0565b91505092915050565b60006020828403121561093f57600080fd5b600082013567ffffffffffffffff81111561095957600080fd5b610965848285016108c5565b91505092915050565b60008060006060848603121561098357600080fd5b600084013567ffffffffffffffff81111561099d57600080fd5b6109a9868287016108c5565b93505060206109ba868287016108b0565b92505060406109cb868287016108ef565b9150509250925092565b6109de81610d80565b82525050565b6109ed81610d92565b82525050565b60006109fe82610d4e565b610a088185610d64565b9350610a18818560208601610dd7565b610a2181610e6a565b840191505092915050565b6000610a3782610d4e565b610a418185610d75565b9350610a51818560208601610dd7565b80840191505092915050565b6000610a6a602683610d64565b9150610a7582610e7b565b604082019050919050565b6000610a8d601283610d64565b9150610a9882610eca565b602082019050919050565b6000610ab0601483610d64565b9150610abb82610ef3565b602082019050919050565b6000610ad3601a83610d64565b9150610ade82610f1c565b602082019050919050565b6000610af6601283610d64565b9150610b0182610f45565b602082019050919050565b6000610b19602083610d64565b9150610b2482610f6e565b602082019050919050565b6000610b3c600083610d59565b9150610b4782610f97565b600082019050919050565b610b5b81610dbe565b82525050565b6000610b6d8284610a2c565b915081905092915050565b6000610b8382610b2f565b9150819050919050565b6000602082019050610ba260008301846109d5565b92915050565b6000602082019050610bbd60008301846109e4565b92915050565b600060a0820190508181036000830152610bdd81886109f3565b9050610bec60208301876109d5565b610bf960408301866109d5565b610c066060830185610b52565b610c136080830184610b52565b9695505050505050565b60006020820190508181036000830152610c3681610a5d565b9050919050565b60006020820190508181036000830152610c5681610a80565b9050919050565b60006020820190508181036000830152610c7681610aa3565b9050919050565b60006020820190508181036000830152610c9681610ac6565b9050919050565b60006020820190508181036000830152610cb681610ae9565b9050919050565b60006020820190508181036000830152610cd681610b0c565b9050919050565b6000602082019050610cf26000830184610b52565b92915050565b6000610d02610d13565b9050610d0e8282610e0a565b919050565b6000604051905090565b600067ffffffffffffffff821115610d3857610d37610e3b565b5b610d4182610e6a565b9050602081019050919050565b600081519050919050565b600081905092915050565b600082825260208201905092915050565b600081905092915050565b6000610d8b82610d9e565b9050919050565b60008115159050919050565b600073ffffffffffffffffffffffffffffffffffffffff82169050919050565b6000819050919050565b82818337600083830152505050565b60005b83811015610df5578082015181840152602081019050610dda565b83811115610e04576000848401525b50505050565b610e1382610e6a565b810181811067ffffffffffffffff82111715610e3257610e31610e3b565b5b80604052505050565b7f4e487b7100000000000000000000000000000000000000000000000000000000600052604160045260246000fd5b6000601f19601f8301169050919050565b7f4f776e61626c653a206e6577206f776e657220697320746865207a65726f206160008201527f6464726573730000000000000000000000000000000000000000000000000000602082015250565b7f747820696420616c726561647920757365640000000000000000000000000000600082015250565b7f4661696c656420746f2073656e64204574686572000000000000000000000000600082015250565b7f73656e6465722063616e206e6f74206265207265636569766572000000000000600082015250565b7f496e76616c69642076616c75652073656e740000000000000000000000000000600082015250565b7f4f776e61626c653a2063616c6c6572206973206e6f7420746865206f776e6572600082015250565b50565b610fa381610d80565b8114610fae57600080fd5b50565b610fba81610dbe565b8114610fc557600080fd5b5056fea26469706673582212207a315663f5f02155b969a13d2339e053ee6f312f7a66389a5b3cdecb2e2485e464736f6c63430008040033",
  "linkReferences": {},
  "deployedLinkReferences": {}
}